{
  "_format": "hh-sol-artifact-1",
  "contractName": "BankContract",
  "sourceName": "contracts/BankContract.sol",
  "abi": [
    {
      "inputs": [],
      "stateMutability": "nonpayable",
      "type": "constructor"
    },
    {
      "anonymous": false,
      "inputs": [
        {
          "indexed": true,
          "internalType": "address",
          "name": "account",
          "type": "address"
        },
        {
          "indexed": false,
          "internalType": "string",
          "name": "accountNumber",
          "type": "string"
        },
        {
          "indexed": false,
          "internalType": "uint256",
          "name": "timestamp",
          "type": "uint256"
        }
      ],
      "name": "AccountCreated",
      "type": "event"
    },
    {
      "anonymous": false,
      "inputs": [
        {
          "indexed": true,
          "internalType": "address",
          "name": "account",
          "type": "address"
        },
        {
          "indexed": false,
          "internalType": "uint256",
          "name": "amount",
          "type": "uint256"
        },
        {
          "indexed": false,
          "internalType": "uint256",
          "name": "timestamp",
          "type": "uint256"
        }
      ],
      "name": "Deposit",
      "type": "event"
    },
    {
      "anonymous": false,
      "inputs": [
        {
          "indexed": true,
          "internalType": "address",
          "name": "from",
          "type": "address"
        },
        {
          "indexed": true,
          "internalType": "address",
          "name": "to",
          "type": "address"
        },
        {
          "indexed": false,
          "internalType": "uint256",
          "name": "amount",
          "type": "uint256"
        },
        {
          "indexed": false,
          "internalType": "string",
          "name": "transactionHash",
          "type": "string"
        },
        {
          "indexed": false,
          "internalType": "uint256",
          "name": "timestamp",
          "type": "uint256"
        }
      ],
      "name": "Transfer",
      "type": "event"
    },
    {
      "anonymous": false,
      "inputs": [
        {
          "indexed": true,
          "internalType": "address",
          "name": "account",
          "type": "address"
        },
        {
          "indexed": false,
          "internalType": "uint256",
          "name": "amount",
          "type": "uint256"
        },
        {
          "indexed": false,
          "internalType": "uint256",
          "name": "timestamp",
          "type": "uint256"
        }
      ],
      "name": "Withdraw",
      "type": "event"
    },
    {
      "inputs": [
        {
          "internalType": "address",
          "name": "_account",
          "type": "address"
        }
      ],
      "name": "accountExist",
      "outputs": [
        {
          "internalType": "bool",
          "name": "exists",
          "type": "bool"
        }
      ],
      "stateMutability": "view",
      "type": "function"
    },
    {
      "inputs": [
        {
          "internalType": "string",
          "name": "",
          "type": "string"
        }
      ],
      "name": "accountNumberToAddress",
      "outputs": [
        {
          "internalType": "address",
          "name": "",
          "type": "address"
        }
      ],
      "stateMutability": "view",
      "type": "function"
    },
    {
      "inputs": [
        {
          "internalType": "address",
          "name": "",
          "type": "address"
        }
      ],
      "name": "accounts",
      "outputs": [
        {
          "internalType": "address",
          "name": "accountOwner",
          "type": "address"
        },
        {
          "internalType": "uint256",
          "name": "balance",
          "type": "uint256"
        },
        {
          "internalType": "bool",
          "name": "exists",
          "type": "bool"
        },
        {
          "internalType": "uint256",
          "name": "createdAt",
          "type": "uint256"
        }
      ],
      "stateMutability": "view",
      "type": "function"
    },
    {
      "inputs": [
        {
          "internalType": "uint256",
          "name": "",
          "type": "uint256"
        }
      ],
      "name": "allAccounts",
      "outputs": [
        {
          "internalType": "address",
          "name": "",
          "type": "address"
        }
      ],
      "stateMutability": "view",
      "type": "function"
    },
    {
      "inputs": [
        {
          "internalType": "string",
          "name": "_accountNumber",
          "type": "string"
        }
      ],
      "name": "createAccount",
      "outputs": [],
      "stateMutability": "nonpayable",
      "type": "function"
    },
    {
      "inputs": [],
      "name": "deposit",
      "outputs": [],
      "stateMutability": "payable",
      "type": "function"
    },
    {
      "inputs": [
        {
          "internalType": "address",
          "name": "_account",
          "type": "address"
        }
      ],
      "name": "getAccountInfo",
      "outputs": [
        {
          "internalType": "address",
          "name": "accountOwner",
          "type": "address"
        },
        {
          "internalType": "uint256",
          "name": "balance",
          "type": "uint256"
        },
        {
          "internalType": "bool",
          "name": "exists",
          "type": "bool"
        },
        {
          "internalType": "uint256",
          "name": "createdAt",
          "type": "uint256"
        }
      ],
      "stateMutability": "view",
      "type": "function"
    },
    {
      "inputs": [
        {
          "internalType": "string",
          "name": "_accountNumber",
          "type": "string"
        }
      ],
      "name": "getAddressByAccountNumber",
      "outputs": [
        {
          "internalType": "address",
          "name": "accountAddress",
          "type": "address"
        }
      ],
      "stateMutability": "view",
      "type": "function"
    },
    {
      "inputs": [
        {
          "internalType": "address",
          "name": "_account",
          "type": "address"
        }
      ],
      "name": "getBalance",
      "outputs": [
        {
          "internalType": "uint256",
          "name": "balance",
          "type": "uint256"
        }
      ],
      "stateMutability": "view",
      "type": "function"
    },
    {
      "inputs": [],
      "name": "getTotalAccounts",
      "outputs": [
        {
          "internalType": "uint256",
          "name": "totalAccounts",
          "type": "uint256"
        }
      ],
      "stateMutability": "view",
      "type": "function"
    },
    {
      "inputs": [],
      "name": "getTotalTransactions",
      "outputs": [
        {
          "internalType": "uint256",
          "name": "total",
          "type": "uint256"
        }
      ],
      "stateMutability": "view",
      "type": "function"
    },
    {
      "inputs": [
        {
          "internalType": "uint256",
          "name": "_transactionId",
          "type": "uint256"
        }
      ],
      "name": "getTransaction",
      "outputs": [
        {
          "internalType": "address",
          "name": "from",
          "type": "address"
        },
        {
          "internalType": "address",
          "name": "to",
          "type": "address"
        },
        {
          "internalType": "uint256",
          "name": "amount",
          "type": "uint256"
        },
        {
          "internalType": "uint256",
          "name": "timestamp",
          "type": "uint256"
        },
        {
          "internalType": "string",
          "name": "transactionHash",
          "type": "string"
        }
      ],
      "stateMutability": "view",
      "type": "function"
    },
    {
      "inputs": [
        {
          "internalType": "address",
          "name": "_account",
          "type": "address"
        }
      ],
      "name": "getTransactionCount",
      "outputs": [
        {
          "internalType": "uint256",
          "name": "count",
          "type": "uint256"
        }
      ],
      "stateMutability": "view",
      "type": "function"
    },
    {
      "inputs": [
        {
          "internalType": "address",
          "name": "_account",
          "type": "address"
        },
        {
          "internalType": "uint256",
          "name": "_offset",
          "type": "uint256"
        },
        {
          "internalType": "uint256",
          "name": "_limit",
          "type": "uint256"
        }
      ],
      "name": "getTransactionIds",
      "outputs": [
        {
          "internalType": "uint256[]",
          "name": "transactionIds",
          "type": "uint256[]"
        }
      ],
      "stateMutability": "view",
      "type": "function"
    },
    {
      "inputs": [],
      "name": "owner",
      "outputs": [
        {
          "internalType": "address",
          "name": "",
          "type": "address"
        }
      ],
      "stateMutability": "view",
      "type": "function"
    },
    {
      "inputs": [],
      "name": "totalTransactions",
      "outputs": [
        {
          "internalType": "uint256",
          "name": "",
          "type": "uint256"
        }
      ],
      "stateMutability": "view",
      "type": "function"
    },
    {
      "inputs": [
        {
          "internalType": "uint256",
          "name": "",
          "type": "uint256"
        }
      ],
      "name": "transactions",
      "outputs": [
        {
          "internalType": "address",
          "name": "from",
          "type": "address"
        },
        {
          "internalType": "address",
          "name": "to",
          "type": "address"
        },
        {
          "internalType": "uint256",
          "name": "amount",
          "type": "uint256"
        },
        {
          "internalType": "uint256",
          "name": "timestamp",
          "type": "uint256"
        },
        {
          "internalType": "string",
          "name": "transactionHash",
          "type": "string"
        },
        {
          "internalType": "bool",
          "name": "exists",
          "type": "bool"
        }
      ],
      "stateMutability": "view",
      "type": "function"
    },
    {
      "inputs": [
        {
          "internalType": "address",
          "name": "_to",
          "type": "address"
        },
        {
          "internalType": "uint256",
          "name": "_amount",
          "type": "uint256"
        },
        {
          "internalType": "string",
          "name": "_transactionHash",
          "type": "string"
        }
      ],
      "name": "transfer",
      "outputs": [],
      "stateMutability": "nonpayable",
      "type": "function"
    },
    {
      "inputs": [
        {
          "internalType": "address",
          "name": "",
          "type": "address"
        },
        {
          "internalType": "uint256",
          "name": "",
          "type": "uint256"
        }
      ],
      "name": "userTransactions",
      "outputs": [
        {
          "internalType": "uint256",
          "name": "",
          "type": "uint256"
        }
      ],
      "stateMutability": "view",
      "type": "function"
    },
    {
      "inputs": [
        {
          "internalType": "uint256",
          "name": "_amount",
          "type": "uint256"
        }
      ],
      "name": "withdraw",
      "outputs": [],
      "stateMutability": "nonpayable",
      "type": "function"
    }
  ],
  "bytecode": "0x608060405234801561001057600080fd5b50600680546001600160a01b031916331790556116b4806100326000396000f3fe60806040526004361061011f5760003560e01c80639ace38c2116100a0578063d0e30db011610064578063d0e30db0146103f0578063da6841aa146103f8578063f4b939381461040d578063f586d6ea1461042d578063f8b2cb4f1461046e57600080fd5b80639ace38c2146103465780639d34652614610378578063b5c604ff146103a5578063b842ec44146103ba578063b9a60038146103da57600080fd5b80635e5c06e2116100e75780635e5c06e2146102005780636c3fda1d146102825780636f145dd2146102ba5780637b510fe8146103065780638da5cb5b1461032657600080fd5b806323ca0cd214610124578063298daf5b1461016d5780632e1a7d4d1461018f57806333ea3dc8146101af57806356b8c724146101e0575b600080fd5b34801561013057600080fd5b5061015a61013f366004611106565b6001600160a01b031660009081526004602052604090205490565b6040519081526020015b60405180910390f35b34801561017957600080fd5b5061018d6101883660046111c4565b61048e565b005b34801561019b57600080fd5b5061018d6101aa366004611201565b610695565b3480156101bb57600080fd5b506101cf6101ca366004611201565b6107d3565b60405161016495949392919061126a565b3480156101ec57600080fd5b5061018d6101fb3660046112af565b61095a565b34801561020c57600080fd5b5061025261021b366004611106565b60006020819052908152604090208054600182015460028301546003909301546001600160a01b0390921692909160ff9091169084565b604080516001600160a01b0390951685526020850193909352901515918301919091526060820152608001610164565b34801561028e57600080fd5b506102a261029d366004611201565b610c83565b6040516001600160a01b039091168152602001610164565b3480156102c657600080fd5b506102f66102d5366004611106565b6001600160a01b031660009081526020819052604090206002015460ff1690565b6040519015158152602001610164565b34801561031257600080fd5b50610252610321366004611106565b610cad565b34801561033257600080fd5b506006546102a2906001600160a01b031681565b34801561035257600080fd5b50610366610361366004611201565b610d4c565b60405161016496959493929190611306565b34801561038457600080fd5b50610398610393366004611355565b610e1b565b6040516101649190611388565b3480156103b157600080fd5b5060055461015a565b3480156103c657600080fd5b5061015a6103d53660046113cc565b610f7e565b3480156103e657600080fd5b5061015a60055481565b61018d610faf565b34801561040457600080fd5b5060025461015a565b34801561041957600080fd5b506102a26104283660046111c4565b61105f565b34801561043957600080fd5b506102a26104483660046111c4565b80516020818301810180516001825292820191909301209152546001600160a01b031681565b34801561047a57600080fd5b5061015a610489366004611106565b611090565b3360009081526020819052604090206002015460ff16156104ef5760405162461bcd60e51b81526020600482015260166024820152754163636f756e7420616c72656164792065786973747360501b60448201526064015b60405180910390fd5b60006001600160a01b031660018260405161050a91906113f6565b908152604051908190036020019020546001600160a01b0316146105705760405162461bcd60e51b815260206004820152601d60248201527f4163636f756e74206e756d62657220616c726561647920696e2075736500000060448201526064016104e6565b604080516080810182523380825260006020808401828152600185870181815242606088019081528686529385905293879020955186546001600160a01b0319166001600160a01b03909116178655905185820155915160028501805460ff19169115159190911790555160039093019290925591516105f19084906113f6565b90815260405190819003602001812080546001600160a01b03939093166001600160a01b0319938416179055600280546001810182556000919091527f405787fa12a823e0f2b7631cc41b3ba8828b3321ca811111fa75cd3aa3bb5ace018054909216339081179092557f8ccbea1c9cdbc2ed318127a183d42dcc41a4938fa10378e7c9a3ada9d34a85279061068a9084904290611412565b60405180910390a250565b3360008181526020819052604090206002015460ff166106c75760405162461bcd60e51b81526004016104e690611434565b600082116106e75760405162461bcd60e51b81526004016104e690611464565b336000908152602081905260409020600101548211156107405760405162461bcd60e51b8152602060048201526014602482015273496e73756666696369656e742062616c616e636560601b60448201526064016104e6565b33600090815260208190526040812060010180548492906107629084906114b1565b9091555050604051339083156108fc029084906000818181858888f19350505050158015610794573d6000803e3d6000fd5b506040805183815242602082015233917ff279e6a1f5e320cca91135676d9cb6e44ca8a08c0b88342bcdb1144f6511b568910160405180910390a25050565b60008181526003602052604081206005015481908190819060609060ff1661083d5760405162461bcd60e51b815260206004820152601a60248201527f5472616e73616374696f6e20646f6573206e6f7420657869737400000000000060448201526064016104e6565b6000868152600360208181526040808420815160c08101835281546001600160a01b0390811682526001830154169381019390935260028101549183019190915291820154606082015260048201805491929160808401919061089f906114ca565b80601f01602080910402602001604051908101604052809291908181526020018280546108cb906114ca565b80156109185780601f106108ed57610100808354040283529160200191610918565b820191906000526020600020905b8154815290600101906020018083116108fb57829003601f168201915b50505091835250506005919091015460ff16151560209182015281519082015160408301516060840151608090940151929b919a509850919650945092505050565b3360008181526020819052604090206002015460ff1661098c5760405162461bcd60e51b81526004016104e690611434565b6001600160a01b0384166109e25760405162461bcd60e51b815260206004820152601960248201527f496e76616c696420726563697069656e7420616464726573730000000000000060448201526064016104e6565b60008311610a025760405162461bcd60e51b81526004016104e690611464565b33600090815260208190526040902060010154831115610a5b5760405162461bcd60e51b8152602060048201526014602482015273496e73756666696369656e742062616c616e636560601b60448201526064016104e6565b6001600160a01b03841660009081526020819052604090206002015460ff16610ac65760405162461bcd60e51b815260206004820181905260248201527f526563697069656e74206163636f756e7420646f6573206e6f7420657869737460448201526064016104e6565b3360009081526020819052604081206001018054859290610ae89084906114b1565b90915550506001600160a01b03841660009081526020819052604081206001018054859290610b18908490611504565b90915550506005546040805160c0810182523381526001600160a01b0387811660208084019182528385018981524260608601908152608086018a8152600160a0880181905260008a815260039586905298909820875181546001600160a01b031990811691891691909117825595519881018054909616989096169790971790935551600284015590519082015591519091906004820190610bbb9082611566565b5060a091909101516005918201805460ff1916911515919091179055336000908152600460209081526040808320805460018181018355918552838520018690556001600160a01b038a1684529083208054918201815583529082200183905581549190610c2883611626565b9190505550846001600160a01b0316336001600160a01b03167fc4b32d7ff75a51e487f3cbb5d3202f2efecca1f4c2b987e0039c1d3220b48a83868642604051610c749392919061163f565b60405180910390a35050505050565b60028181548110610c9357600080fd5b6000918252602090912001546001600160a01b0316905081565b6001600160a01b03811660009081526020819052604081206002015481908190819060ff16610cee5760405162461bcd60e51b81526004016104e690611434565b505050506001600160a01b0390811660009081526020818152604091829020825160808101845281549094168085526001820154928501839052600282015460ff161515938501849052600390910154606090940184905293909290565b6003602081905260009182526040909120805460018201546002830154938301546004840180546001600160a01b039485169694909316949192610d8f906114ca565b80601f0160208091040260200160405190810160405280929190818152602001828054610dbb906114ca565b8015610e085780601f10610ddd57610100808354040283529160200191610e08565b820191906000526020600020905b815481529060010190602001808311610deb57829003601f168201915b5050506005909301549192505060ff1686565b6001600160a01b0383166000908152600460209081526040808320805482518185028101850190935280835260609493830182828015610e7a57602002820191906000526020600020905b815481526020019060010190808311610e66575b5050835193945050508186109050610ea45750506040805160008152602081019091529050610f77565b6000610eb08587611504565b905081811115610ebd5750805b6000610ec987836114b1565b905060008167ffffffffffffffff811115610ee657610ee6611121565b604051908082528060200260200182016040528015610f0f578160200160208202803683370190505b50905060005b82811015610f6f5785610f28828b611504565b81518110610f3857610f38611668565b6020026020010151828281518110610f5257610f52611668565b602090810291909101015280610f6781611626565b915050610f15565b509450505050505b9392505050565b60046020528160005260406000208181548110610f9a57600080fd5b90600052602060002001600091509150505481565b3360008181526020819052604090206002015460ff16610fe15760405162461bcd60e51b81526004016104e690611434565b600034116110015760405162461bcd60e51b81526004016104e690611464565b3360009081526020819052604081206001018054349290611023908490611504565b90915550506040805134815242602082015233917f90890809c654f11d6e72a28fa60149770a0d11ec6c92319d6ceb2bb0a4ea1a15910161068a565b600060018260405161107191906113f6565b908152604051908190036020019020546001600160a01b031692915050565b6001600160a01b03811660009081526020819052604081206002015460ff166110cb5760405162461bcd60e51b81526004016104e690611434565b506001600160a01b031660009081526020819052604090206001015490565b80356001600160a01b038116811461110157600080fd5b919050565b60006020828403121561111857600080fd5b610f77826110ea565b634e487b7160e01b600052604160045260246000fd5b600082601f83011261114857600080fd5b813567ffffffffffffffff8082111561116357611163611121565b604051601f8301601f19908116603f0116810190828211818310171561118b5761118b611121565b816040528381528660208588010111156111a457600080fd5b836020870160208301376000602085830101528094505050505092915050565b6000602082840312156111d657600080fd5b813567ffffffffffffffff8111156111ed57600080fd5b6111f984828501611137565b949350505050565b60006020828403121561121357600080fd5b5035919050565b60005b8381101561123557818101518382015260200161121d565b50506000910152565b6000815180845261125681602086016020860161121a565b601f01601f19169290920160200192915050565b6001600160a01b03868116825285166020820152604081018490526060810183905260a0608082018190526000906112a49083018461123e565b979650505050505050565b6000806000606084860312156112c457600080fd5b6112cd846110ea565b925060208401359150604084013567ffffffffffffffff8111156112f057600080fd5b6112fc86828701611137565b9150509250925092565b6001600160a01b03878116825286166020820152604081018590526060810184905260c0608082018190526000906113409083018561123e565b905082151560a0830152979650505050505050565b60008060006060848603121561136a57600080fd5b611373846110ea565b95602085013595506040909401359392505050565b6020808252825182820181905260009190848201906040850190845b818110156113c0578351835292840192918401916001016113a4565b50909695505050505050565b600080604083850312156113df57600080fd5b6113e8836110ea565b946020939093013593505050565b6000825161140881846020870161121a565b9190910192915050565b604081526000611425604083018561123e565b90508260208301529392505050565b6020808252601690820152751058d8dbdd5b9d08191bd95cc81b9bdd08195e1a5cdd60521b604082015260600190565b6020808252601d908201527f416d6f756e74206d7573742062652067726561746572207468616e2030000000604082015260600190565b634e487b7160e01b600052601160045260246000fd5b818103818111156114c4576114c461149b565b92915050565b600181811c908216806114de57607f821691505b6020821081036114fe57634e487b7160e01b600052602260045260246000fd5b50919050565b808201808211156114c4576114c461149b565b601f82111561156157600081815260208120601f850160051c8101602086101561153e5750805b601f850160051c820191505b8181101561155d5782815560010161154a565b5050505b505050565b815167ffffffffffffffff81111561158057611580611121565b6115948161158e84546114ca565b84611517565b602080601f8311600181146115c957600084156115b15750858301515b600019600386901b1c1916600185901b17855561155d565b600085815260208120601f198616915b828110156115f8578886015182559484019460019091019084016115d9565b50858210156116165787850151600019600388901b60f8161c191681555b5050505050600190811b01905550565b6000600182016116385761163861149b565b5060010190565b838152606060208201526000611658606083018561123e565b9050826040830152949350505050565b634e487b7160e01b600052603260045260246000fdfea2646970667358221220f94ed95e482760867e5f346e8a0262567161ae0cd8634e41c5a549644fa1199964736f6c63430008130033",
  "linkReferences": {},
  "deployedLinkReferences": {}
}